{
  "_format": "hh-sol-artifact-1",
  "contractName": "TricksforBoosterNFT",
  "sourceName": "contracts/TricksforBoosterNFT.sol",
  "abi": [
    {
      "inputs": [
        {
          "internalType": "string",
          "name": "name_",
          "type": "string"
        },
        {
          "internalType": "string",
          "name": "symbol_",
          "type": "string"
        },
        {
          "internalType": "string",
          "name": "baseURI_",
          "type": "string"
        },
        {
          "internalType": "string",
          "name": "contractMetadataURI_",
          "type": "string"
        },
        {
          "internalType": "address",
          "name": "royaltyReceiver_",
          "type": "address"
        },
        {
          "internalType": "uint96",
          "name": "royaltyFeeBasisPoints_",
          "type": "uint96"
        }
      ],
      "stateMutability": "nonpayable",
      "type": "constructor"
    },
    {
      "inputs": [
        {
          "internalType": "uint256",
          "name": "numerator",
          "type": "uint256"
        },
        {
          "internalType": "uint256",
          "name": "denominator",
          "type": "uint256"
        }
      ],
      "name": "ERC2981InvalidDefaultRoyalty",
      "type": "error"
    },
    {
      "inputs": [
        {
          "internalType": "address",
          "name": "receiver",
          "type": "address"
        }
      ],
      "name": "ERC2981InvalidDefaultRoyaltyReceiver",
      "type": "error"
    },
    {
      "inputs": [
        {
          "internalType": "uint256",
          "name": "tokenId",
          "type": "uint256"
        },
        {
          "internalType": "uint256",
          "name": "numerator",
          "type": "uint256"
        },
        {
          "internalType": "uint256",
          "name": "denominator",
          "type": "uint256"
        }
      ],
      "name": "ERC2981InvalidTokenRoyalty",
      "type": "error"
    },
    {
      "inputs": [
        {
          "internalType": "uint256",
          "name": "tokenId",
          "type": "uint256"
        },
        {
          "internalType": "address",
          "name": "receiver",
          "type": "address"
        }
      ],
      "name": "ERC2981InvalidTokenRoyaltyReceiver",
      "type": "error"
    },
    {
      "inputs": [
        {
          "internalType": "address",
          "name": "sender",
          "type": "address"
        },
        {
          "internalType": "uint256",
          "name": "tokenId",
          "type": "uint256"
        },
        {
          "internalType": "address",
          "name": "owner",
          "type": "address"
        }
      ],
      "name": "ERC721IncorrectOwner",
      "type": "error"
    },
    {
      "inputs": [
        {
          "internalType": "address",
          "name": "operator",
          "type": "address"
        },
        {
          "internalType": "uint256",
          "name": "tokenId",
          "type": "uint256"
        }
      ],
      "name": "ERC721InsufficientApproval",
      "type": "error"
    },
    {
      "inputs": [
        {
          "internalType": "address",
          "name": "approver",
          "type": "address"
        }
      ],
      "name": "ERC721InvalidApprover",
      "type": "error"
    },
    {
      "inputs": [
        {
          "internalType": "address",
          "name": "operator",
          "type": "address"
        }
      ],
      "name": "ERC721InvalidOperator",
      "type": "error"
    },
    {
      "inputs": [
        {
          "internalType": "address",
          "name": "owner",
          "type": "address"
        }
      ],
      "name": "ERC721InvalidOwner",
      "type": "error"
    },
    {
      "inputs": [
        {
          "internalType": "address",
          "name": "receiver",
          "type": "address"
        }
      ],
      "name": "ERC721InvalidReceiver",
      "type": "error"
    },
    {
      "inputs": [
        {
          "internalType": "address",
          "name": "sender",
          "type": "address"
        }
      ],
      "name": "ERC721InvalidSender",
      "type": "error"
    },
    {
      "inputs": [
        {
          "internalType": "uint256",
          "name": "tokenId",
          "type": "uint256"
        }
      ],
      "name": "ERC721NonexistentToken",
      "type": "error"
    },
    {
      "inputs": [],
      "name": "EnforcedPause",
      "type": "error"
    },
    {
      "inputs": [],
      "name": "ExpectedPause",
      "type": "error"
    },
    {
      "inputs": [
        {
          "internalType": "address",
          "name": "owner",
          "type": "address"
        }
      ],
      "name": "OwnableInvalidOwner",
      "type": "error"
    },
    {
      "inputs": [
        {
          "internalType": "address",
          "name": "account",
          "type": "address"
        }
      ],
      "name": "OwnableUnauthorizedAccount",
      "type": "error"
    },
    {
      "inputs": [
        {
          "internalType": "uint256",
          "name": "tokenId",
          "type": "uint256"
        }
      ],
      "name": "TokenDoesNotExist",
      "type": "error"
    },
    {
      "anonymous": false,
      "inputs": [
        {
          "indexed": true,
          "internalType": "address",
          "name": "owner",
          "type": "address"
        },
        {
          "indexed": true,
          "internalType": "address",
          "name": "approved",
          "type": "address"
        },
        {
          "indexed": true,
          "internalType": "uint256",
          "name": "tokenId",
          "type": "uint256"
        }
      ],
      "name": "Approval",
      "type": "event"
    },
    {
      "anonymous": false,
      "inputs": [
        {
          "indexed": true,
          "internalType": "address",
          "name": "owner",
          "type": "address"
        },
        {
          "indexed": true,
          "internalType": "address",
          "name": "operator",
          "type": "address"
        },
        {
          "indexed": false,
          "internalType": "bool",
          "name": "approved",
          "type": "bool"
        }
      ],
      "name": "ApprovalForAll",
      "type": "event"
    },
    {
      "anonymous": false,
      "inputs": [
        {
          "indexed": true,
          "internalType": "address",
          "name": "previousOwner",
          "type": "address"
        },
        {
          "indexed": true,
          "internalType": "address",
          "name": "newOwner",
          "type": "address"
        }
      ],
      "name": "OwnershipTransferred",
      "type": "event"
    },
    {
      "anonymous": false,
      "inputs": [
        {
          "indexed": false,
          "internalType": "address",
          "name": "account",
          "type": "address"
        }
      ],
      "name": "Paused",
      "type": "event"
    },
    {
      "anonymous": false,
      "inputs": [
        {
          "indexed": true,
          "internalType": "address",
          "name": "from",
          "type": "address"
        },
        {
          "indexed": true,
          "internalType": "address",
          "name": "to",
          "type": "address"
        },
        {
          "indexed": true,
          "internalType": "uint256",
          "name": "tokenId",
          "type": "uint256"
        }
      ],
      "name": "Transfer",
      "type": "event"
    },
    {
      "anonymous": false,
      "inputs": [
        {
          "indexed": false,
          "internalType": "address",
          "name": "account",
          "type": "address"
        }
      ],
      "name": "Unpaused",
      "type": "event"
    },
    {
      "inputs": [
        {
          "internalType": "address",
          "name": "to",
          "type": "address"
        },
        {
          "internalType": "uint256",
          "name": "tokenId",
          "type": "uint256"
        }
      ],
      "name": "approve",
      "outputs": [],
      "stateMutability": "nonpayable",
      "type": "function"
    },
    {
      "inputs": [
        {
          "internalType": "address",
          "name": "owner",
          "type": "address"
        }
      ],
      "name": "balanceOf",
      "outputs": [
        {
          "internalType": "uint256",
          "name": "",
          "type": "uint256"
        }
      ],
      "stateMutability": "view",
      "type": "function"
    },
    {
      "inputs": [],
      "name": "contractURI",
      "outputs": [
        {
          "internalType": "string",
          "name": "",
          "type": "string"
        }
      ],
      "stateMutability": "view",
      "type": "function"
    },
    {
      "inputs": [
        {
          "internalType": "uint256",
          "name": "tokenId",
          "type": "uint256"
        }
      ],
      "name": "getApproved",
      "outputs": [
        {
          "internalType": "address",
          "name": "",
          "type": "address"
        }
      ],
      "stateMutability": "view",
      "type": "function"
    },
    {
      "inputs": [
        {
          "internalType": "address",
          "name": "owner",
          "type": "address"
        },
        {
          "internalType": "address",
          "name": "operator",
          "type": "address"
        }
      ],
      "name": "isApprovedForAll",
      "outputs": [
        {
          "internalType": "bool",
          "name": "",
          "type": "bool"
        }
      ],
      "stateMutability": "view",
      "type": "function"
    },
    {
      "inputs": [
        {
          "internalType": "address",
          "name": "to",
          "type": "address"
        }
      ],
      "name": "mint",
      "outputs": [],
      "stateMutability": "nonpayable",
      "type": "function"
    },
    {
      "inputs": [],
      "name": "name",
      "outputs": [
        {
          "internalType": "string",
          "name": "",
          "type": "string"
        }
      ],
      "stateMutability": "view",
      "type": "function"
    },
    {
      "inputs": [],
      "name": "owner",
      "outputs": [
        {
          "internalType": "address",
          "name": "",
          "type": "address"
        }
      ],
      "stateMutability": "view",
      "type": "function"
    },
    {
      "inputs": [
        {
          "internalType": "uint256",
          "name": "tokenId",
          "type": "uint256"
        }
      ],
      "name": "ownerOf",
      "outputs": [
        {
          "internalType": "address",
          "name": "",
          "type": "address"
        }
      ],
      "stateMutability": "view",
      "type": "function"
    },
    {
      "inputs": [],
      "name": "pause",
      "outputs": [],
      "stateMutability": "nonpayable",
      "type": "function"
    },
    {
      "inputs": [],
      "name": "paused",
      "outputs": [
        {
          "internalType": "bool",
          "name": "",
          "type": "bool"
        }
      ],
      "stateMutability": "view",
      "type": "function"
    },
    {
      "inputs": [],
      "name": "renounceOwnership",
      "outputs": [],
      "stateMutability": "nonpayable",
      "type": "function"
    },
    {
      "inputs": [
        {
          "internalType": "uint256",
          "name": "tokenId",
          "type": "uint256"
        },
        {
          "internalType": "uint256",
          "name": "salePrice",
          "type": "uint256"
        }
      ],
      "name": "royaltyInfo",
      "outputs": [
        {
          "internalType": "address",
          "name": "receiver",
          "type": "address"
        },
        {
          "internalType": "uint256",
          "name": "amount",
          "type": "uint256"
        }
      ],
      "stateMutability": "view",
      "type": "function"
    },
    {
      "inputs": [
        {
          "internalType": "address",
          "name": "from",
          "type": "address"
        },
        {
          "internalType": "address",
          "name": "to",
          "type": "address"
        },
        {
          "internalType": "uint256",
          "name": "tokenId",
          "type": "uint256"
        }
      ],
      "name": "safeTransferFrom",
      "outputs": [],
      "stateMutability": "nonpayable",
      "type": "function"
    },
    {
      "inputs": [
        {
          "internalType": "address",
          "name": "from",
          "type": "address"
        },
        {
          "internalType": "address",
          "name": "to",
          "type": "address"
        },
        {
          "internalType": "uint256",
          "name": "tokenId",
          "type": "uint256"
        },
        {
          "internalType": "bytes",
          "name": "data",
          "type": "bytes"
        }
      ],
      "name": "safeTransferFrom",
      "outputs": [],
      "stateMutability": "nonpayable",
      "type": "function"
    },
    {
      "inputs": [
        {
          "internalType": "address",
          "name": "operator",
          "type": "address"
        },
        {
          "internalType": "bool",
          "name": "approved",
          "type": "bool"
        }
      ],
      "name": "setApprovalForAll",
      "outputs": [],
      "stateMutability": "nonpayable",
      "type": "function"
    },
    {
      "inputs": [
        {
          "internalType": "string",
          "name": "baseURI_",
          "type": "string"
        }
      ],
      "name": "setBaseURI",
      "outputs": [],
      "stateMutability": "nonpayable",
      "type": "function"
    },
    {
      "inputs": [
        {
          "internalType": "string",
          "name": "contractMetadataURI_",
          "type": "string"
        }
      ],
      "name": "setContractURI",
      "outputs": [],
      "stateMutability": "nonpayable",
      "type": "function"
    },
    {
      "inputs": [
        {
          "internalType": "address",
          "name": "receiver",
          "type": "address"
        },
        {
          "internalType": "uint96",
          "name": "feeBasisPoints",
          "type": "uint96"
        }
      ],
      "name": "setRoyaltyInfo",
      "outputs": [],
      "stateMutability": "nonpayable",
      "type": "function"
    },
    {
      "inputs": [
        {
          "internalType": "bytes4",
          "name": "interfaceId",
          "type": "bytes4"
        }
      ],
      "name": "supportsInterface",
      "outputs": [
        {
          "internalType": "bool",
          "name": "",
          "type": "bool"
        }
      ],
      "stateMutability": "view",
      "type": "function"
    },
    {
      "inputs": [],
      "name": "symbol",
      "outputs": [
        {
          "internalType": "string",
          "name": "",
          "type": "string"
        }
      ],
      "stateMutability": "view",
      "type": "function"
    },
    {
      "inputs": [
        {
          "internalType": "uint256",
          "name": "tokenId",
          "type": "uint256"
        }
      ],
      "name": "tokenURI",
      "outputs": [
        {
          "internalType": "string",
          "name": "",
          "type": "string"
        }
      ],
      "stateMutability": "view",
      "type": "function"
    },
    {
      "inputs": [
        {
          "internalType": "address",
          "name": "from",
          "type": "address"
        },
        {
          "internalType": "address",
          "name": "to",
          "type": "address"
        },
        {
          "internalType": "uint256",
          "name": "tokenId",
          "type": "uint256"
        }
      ],
      "name": "transferFrom",
      "outputs": [],
      "stateMutability": "nonpayable",
      "type": "function"
    },
    {
      "inputs": [
        {
          "internalType": "address",
          "name": "newOwner",
          "type": "address"
        }
      ],
      "name": "transferOwnership",
      "outputs": [],
      "stateMutability": "nonpayable",
      "type": "function"
    },
    {
      "inputs": [],
      "name": "unpause",
      "outputs": [],
      "stateMutability": "nonpayable",
      "type": "function"
    }
  ],
  "bytecode": "0x60806040526001600b55348015610014575f80fd5b50604051611aea380380611aea83398101604081905261003391610279565b3386865f61004183826103d7565b50600161004e82826103d7565b5050506001600160a01b03811661007f57604051631e4fbdf760e01b81525f60048201526024015b60405180910390fd5b610088816100b8565b50600961009585826103d7565b50600a6100a284826103d7565b506100ad8282610109565b505050505050610491565b600880546001600160a01b038381166001600160a01b0319831681179093556040519116919082907f8be0079c531659141344cd1fd0a4f28419497f9722a3daafe3b4186f6b6457e0905f90a35050565b6127106001600160601b03821681101561014857604051636f483d0960e01b81526001600160601b038316600482015260248101829052604401610076565b6001600160a01b03831661017157604051635b6cc80560e11b81525f6004820152602401610076565b50604080518082019091526001600160a01b039092168083526001600160601b039091166020909201829052600160a01b90910217600655565b634e487b7160e01b5f52604160045260245ffd5b5f82601f8301126101ce575f80fd5b81516001600160401b038111156101e7576101e76101ab565b604051601f8201601f19908116603f011681016001600160401b0381118282101715610215576102156101ab565b60405281815283820160200185101561022c575f80fd5b8160208501602083015e5f918101602001919091529392505050565b80516001600160a01b038116811461025e575f80fd5b919050565b80516001600160601b038116811461025e575f80fd5b5f805f805f8060c0878903121561028e575f80fd5b86516001600160401b038111156102a3575f80fd5b6102af89828a016101bf565b602089015190975090506001600160401b038111156102cc575f80fd5b6102d889828a016101bf565b604089015190965090506001600160401b038111156102f5575f80fd5b61030189828a016101bf565b606089015190955090506001600160401b0381111561031e575f80fd5b61032a89828a016101bf565b93505061033960808801610248565b915061034760a08801610263565b90509295509295509295565b600181811c9082168061036757607f821691505b60208210810361038557634e487b7160e01b5f52602260045260245ffd5b50919050565b601f8211156103d257805f5260205f20601f840160051c810160208510156103b05750805b601f840160051c820191505b818110156103cf575f81556001016103bc565b50505b505050565b81516001600160401b038111156103f0576103f06101ab565b610404816103fe8454610353565b8461038b565b6020601f821160018114610436575f831561041f5750848201515b5f19600385901b1c1916600184901b1784556103cf565b5f84815260208120601f198516915b828110156104655787850151825560209485019460019092019101610445565b508482101561048257868401515f19600387901b60f8161c191681555b50505050600190811b01905550565b61164c8061049e5f395ff3fe608060405234801561000f575f80fd5b506004361061016d575f3560e01c80636a627842116100d957806395d89b4111610093578063c87b56dd1161006e578063c87b56dd1461032f578063e8a3d48514610342578063e985e9c51461034a578063f2fde38b1461035d575f80fd5b806395d89b4114610301578063a22cb46514610309578063b88d4fde1461031c575f80fd5b80636a6278421461029957806370a08231146102ac578063715018a6146102cd5780638456cb59146102d55780638da5cb5b146102dd578063938e3d7b146102ee575f80fd5b80632a55205a1161012a5780632a55205a146102145780633f4ba83a1461024657806342842e0e1461024e57806355f804b3146102615780635c975abb146102745780636352211e14610286575f80fd5b806301ffc9a71461017157806302fa7c471461019957806306fdde03146101ae578063081812fc146101c3578063095ea7b3146101ee57806323b872dd14610201575b5f80fd5b61018461017f3660046110f6565b610370565b60405190151581526020015b60405180910390f35b6101ac6101a736600461112c565b610380565b005b6101b6610396565b604051610190919061119a565b6101d66101d13660046111ac565b610425565b6040516001600160a01b039091168152602001610190565b6101ac6101fc3660046111c3565b61044c565b6101ac61020f3660046111eb565b610457565b610227610222366004611225565b6104e5565b604080516001600160a01b039093168352602083019190915201610190565b6101ac610568565b6101ac61025c3660046111eb565b61057a565b6101ac61026f366004611245565b610599565b600854600160a01b900460ff16610184565b6101d66102943660046111ac565b6105ae565b6101ac6102a73660046112b3565b6105b8565b6102bf6102ba3660046112b3565b6105dd565b604051908152602001610190565b6101ac610622565b6101ac610633565b6008546001600160a01b03166101d6565b6101ac6102fc366004611245565b610643565b6101b6610658565b6101ac6103173660046112cc565b610667565b6101ac61032a36600461130e565b610672565b6101b661033d3660046111ac565b61068a565b6101b66106ef565b6101846103583660046113eb565b6106fe565b6101ac61036b3660046112b3565b61072b565b5f61037a82610768565b92915050565b61038861078c565b61039282826107b9565b5050565b60605f80546103a49061141c565b80601f01602080910402602001604051908101604052809291908181526020018280546103d09061141c565b801561041b5780601f106103f25761010080835404028352916020019161041b565b820191905f5260205f20905b8154815290600101906020018083116103fe57829003601f168201915b5050505050905090565b5f61042f8261085b565b505f828152600460205260409020546001600160a01b031661037a565b610392828233610893565b6001600160a01b03821661048557604051633250574960e11b81525f60048201526024015b60405180910390fd5b5f6104918383336108a0565b9050836001600160a01b0316816001600160a01b0316146104df576040516364283d7b60e01b81526001600160a01b038086166004830152602482018490528216604482015260640161047c565b50505050565b5f82815260076020526040812080548291906001600160a01b03811690600160a01b90046001600160601b0316816105385750506006546001600160a01b03811690600160a01b90046001600160601b03165b5f61271061054f6001600160601b03841689611454565b6105599190611477565b92989297509195505050505050565b61057061078c565b610578610992565b565b61059483838360405180602001604052805f815250610672565b505050565b6105a161078c565b60096105948284836114da565b5f61037a8261085b565b6105c061078c565b6105c86109e7565b600b8054600181019091556103928282610a12565b5f6001600160a01b038216610607576040516322718ad960e21b81525f600482015260240161047c565b506001600160a01b03165f9081526003602052604090205490565b61062a61078c565b6105785f610a2b565b61063b61078c565b610578610a7c565b61064b61078c565b600a6105948284836114da565b6060600180546103a49061141c565b610392338383610abf565b61067d848484610457565b6104df3385858585610b86565b60606106958261085b565b505f61069f610cae565b90505f8151116106bd5760405180602001604052805f8152506106e8565b806106c784610cbd565b6040516020016106d89291906115ab565b6040516020818303038152906040525b9392505050565b6060600a80546103a49061141c565b6001600160a01b039182165f90815260056020908152604080832093909416825291909152205460ff1690565b61073361078c565b6001600160a01b03811661075c57604051631e4fbdf760e01b81525f600482015260240161047c565b61076581610a2b565b50565b5f6001600160e01b0319821663152a902d60e11b148061037a575061037a82610d4d565b6008546001600160a01b031633146105785760405163118cdaa760e01b815233600482015260240161047c565b6127106001600160601b0382168110156107f857604051636f483d0960e01b81526001600160601b03831660048201526024810182905260440161047c565b6001600160a01b03831661082157604051635b6cc80560e11b81525f600482015260240161047c565b50604080518082019091526001600160a01b039092168083526001600160601b039091166020909201829052600160a01b90910217600655565b5f818152600260205260408120546001600160a01b03168061037a57604051637e27328960e01b81526004810184905260240161047c565b6105948383836001610d9c565b5f828152600260205260408120546001600160a01b03908116908316156108cc576108cc818486610ea0565b6001600160a01b03811615610906576108e75f855f80610d9c565b6001600160a01b0381165f90815260036020526040902080545f190190555b6001600160a01b03851615610934576001600160a01b0385165f908152600360205260409020805460010190555b5f8481526002602052604080822080546001600160a01b0319166001600160a01b0389811691821790925591518793918516917fddf252ad1be2c89b69c2b068fc378daa952ba7f163c4a11628f55a4df523b3ef91a4949350505050565b61099a610f04565b6008805460ff60a01b191690557f5db9ee0a495bf2e6ff9c91a7834c1ba4fdd244a5e8aa4e537bd38aeae4b073aa335b6040516001600160a01b03909116815260200160405180910390a1565b600854600160a01b900460ff16156105785760405163d93c066560e01b815260040160405180910390fd5b610392828260405180602001604052805f815250610f2e565b600880546001600160a01b038381166001600160a01b0319831681179093556040519116919082907f8be0079c531659141344cd1fd0a4f28419497f9722a3daafe3b4186f6b6457e0905f90a35050565b610a846109e7565b6008805460ff60a01b1916600160a01b1790557f62e78cea01bee320cd4e420270b5ea74000d11b0c9f74754ebdbfc544b05a2586109ca3390565b6001600160a01b038316610ae85760405163a9fbf51f60e01b81525f600482015260240161047c565b6001600160a01b038216610b1a57604051630b61174360e31b81526001600160a01b038316600482015260240161047c565b6001600160a01b038381165f81815260056020908152604080832094871680845294825291829020805460ff191686151590811790915591519182527f17307eab39ab6107e8899845ad3d59bd9653f200f220920489ca2b5937696c31910160405180910390a3505050565b6001600160a01b0383163b15610ca757604051630a85bd0160e11b81526001600160a01b0384169063150b7a0290610bc89088908890879087906004016115bf565b6020604051808303815f875af1925050508015610c02575060408051601f3d908101601f19168201909252610bff918101906115fb565b60015b610c69573d808015610c2f576040519150601f19603f3d011682016040523d82523d5f602084013e610c34565b606091505b5080515f03610c6157604051633250574960e11b81526001600160a01b038516600482015260240161047c565b805160208201fd5b6001600160e01b03198116630a85bd0160e11b14610ca557604051633250574960e11b81526001600160a01b038516600482015260240161047c565b505b5050505050565b6060600980546103a49061141c565b60605f610cc983610f45565b60010190505f8167ffffffffffffffff811115610ce857610ce86112fa565b6040519080825280601f01601f191660200182016040528015610d12576020820181803683370190505b5090508181016020015b5f19016f181899199a1a9b1b9c1cb0b131b232b360811b600a86061a8153600a8504945084610d1c57509392505050565b5f6001600160e01b031982166380ac58cd60e01b1480610d7d57506001600160e01b03198216635b5e139f60e01b145b8061037a57506301ffc9a760e01b6001600160e01b031983161461037a565b8080610db057506001600160a01b03821615155b15610e71575f610dbf8461085b565b90506001600160a01b03831615801590610deb5750826001600160a01b0316816001600160a01b031614155b8015610dfe5750610dfc81846106fe565b155b15610e275760405163a9fbf51f60e01b81526001600160a01b038416600482015260240161047c565b8115610e6f5783856001600160a01b0316826001600160a01b03167f8c5be1e5ebec7d5bd14f71427d1e84f3dd0314c0f7b2291e5b200ac8c7c3b92560405160405180910390a45b505b50505f90815260046020526040902080546001600160a01b0319166001600160a01b0392909216919091179055565b610eab83838361101c565b610594576001600160a01b038316610ed957604051637e27328960e01b81526004810182905260240161047c565b60405163177e802f60e01b81526001600160a01b03831660048201526024810182905260440161047c565b600854600160a01b900460ff1661057857604051638dfc202b60e01b815260040160405180910390fd5b610f388383611080565b610594335f858585610b86565b5f8072184f03e93ff9f4daa797ed6e38ed64bf6a1f0160401b8310610f835772184f03e93ff9f4daa797ed6e38ed64bf6a1f0160401b830492506040015b6d04ee2d6d415b85acef81000000008310610faf576d04ee2d6d415b85acef8100000000830492506020015b662386f26fc100008310610fcd57662386f26fc10000830492506010015b6305f5e1008310610fe5576305f5e100830492506008015b6127108310610ff957612710830492506004015b6064831061100b576064830492506002015b600a831061037a5760010192915050565b5f6001600160a01b038316158015906110785750826001600160a01b0316846001600160a01b03161480611055575061105584846106fe565b8061107857505f828152600460205260409020546001600160a01b038481169116145b949350505050565b6001600160a01b0382166110a957604051633250574960e11b81525f600482015260240161047c565b5f6110b583835f6108a0565b90506001600160a01b03811615610594576040516339e3563760e11b81525f600482015260240161047c565b6001600160e01b031981168114610765575f80fd5b5f60208284031215611106575f80fd5b81356106e8816110e1565b80356001600160a01b0381168114611127575f80fd5b919050565b5f806040838503121561113d575f80fd5b61114683611111565b915060208301356001600160601b0381168114611161575f80fd5b809150509250929050565b5f81518084528060208401602086015e5f602082860101526020601f19601f83011685010191505092915050565b602081525f6106e8602083018461116c565b5f602082840312156111bc575f80fd5b5035919050565b5f80604083850312156111d4575f80fd5b6111dd83611111565b946020939093013593505050565b5f805f606084860312156111fd575f80fd5b61120684611111565b925061121460208501611111565b929592945050506040919091013590565b5f8060408385031215611236575f80fd5b50508035926020909101359150565b5f8060208385031215611256575f80fd5b823567ffffffffffffffff81111561126c575f80fd5b8301601f8101851361127c575f80fd5b803567ffffffffffffffff811115611292575f80fd5b8560208284010111156112a3575f80fd5b6020919091019590945092505050565b5f602082840312156112c3575f80fd5b6106e882611111565b5f80604083850312156112dd575f80fd5b6112e683611111565b915060208301358015158114611161575f80fd5b634e487b7160e01b5f52604160045260245ffd5b5f805f8060808587031215611321575f80fd5b61132a85611111565b935061133860208601611111565b925060408501359150606085013567ffffffffffffffff81111561135a575f80fd5b8501601f8101871361136a575f80fd5b803567ffffffffffffffff811115611384576113846112fa565b604051601f8201601f19908116603f0116810167ffffffffffffffff811182821017156113b3576113b36112fa565b6040528181528282016020018910156113ca575f80fd5b816020840160208301375f6020838301015280935050505092959194509250565b5f80604083850312156113fc575f80fd5b61140583611111565b915061141360208401611111565b90509250929050565b600181811c9082168061143057607f821691505b60208210810361144e57634e487b7160e01b5f52602260045260245ffd5b50919050565b808202811582820484141761037a57634e487b7160e01b5f52601160045260245ffd5b5f8261149157634e487b7160e01b5f52601260045260245ffd5b500490565b601f82111561059457805f5260205f20601f840160051c810160208510156114bb5750805b601f840160051c820191505b81811015610ca7575f81556001016114c7565b67ffffffffffffffff8311156114f2576114f26112fa565b61150683611500835461141c565b83611496565b5f601f841160018114611537575f85156115205750838201355b5f19600387901b1c1916600186901b178355610ca7565b5f83815260208120601f198716915b828110156115665786850135825560209485019460019092019101611546565b5086821015611582575f1960f88860031b161c19848701351681555b505060018560011b0183555050505050565b5f81518060208401855e5f93019283525090919050565b5f6110786115b98386611594565b84611594565b6001600160a01b03858116825284166020820152604081018390526080606082018190525f906115f19083018461116c565b9695505050505050565b5f6020828403121561160b575f80fd5b81516106e8816110e156fea2646970667358221220c3d065c7f068d3cf96b24448b8f22685c8950bed8f08fb054ab628030a38355764736f6c634300081a0033",
  "linkReferences": {},
  "deployedLinkReferences": {}
}