{
  "_format": "hh-sol-artifact-1",
  "contractName": "TricksforBoosterStaking",
  "sourceName": "contracts/TricksforBoosterStaking.sol",
  "abi": [
    {
      "inputs": [
        {
          "internalType": "address",
          "name": "nftContract_",
          "type": "address"
        }
      ],
      "stateMutability": "nonpayable",
      "type": "constructor"
    },
    {
      "inputs": [],
      "name": "EnforcedPause",
      "type": "error"
    },
    {
      "inputs": [],
      "name": "ExpectedPause",
      "type": "error"
    },
    {
      "inputs": [],
      "name": "NotOriginalStaker",
      "type": "error"
    },
    {
      "inputs": [],
      "name": "NotTokenOwner",
      "type": "error"
    },
    {
      "inputs": [
        {
          "internalType": "address",
          "name": "owner",
          "type": "address"
        }
      ],
      "name": "OwnableInvalidOwner",
      "type": "error"
    },
    {
      "inputs": [
        {
          "internalType": "address",
          "name": "account",
          "type": "address"
        }
      ],
      "name": "OwnableUnauthorizedAccount",
      "type": "error"
    },
    {
      "inputs": [],
      "name": "ReentrancyGuardReentrantCall",
      "type": "error"
    },
    {
      "inputs": [],
      "name": "TokenAlreadyStaked",
      "type": "error"
    },
    {
      "inputs": [],
      "name": "TokenNotStaked",
      "type": "error"
    },
    {
      "inputs": [],
      "name": "UnsupportedNFTContract",
      "type": "error"
    },
    {
      "inputs": [],
      "name": "ZeroAddress",
      "type": "error"
    },
    {
      "anonymous": false,
      "inputs": [
        {
          "indexed": true,
          "internalType": "address",
          "name": "originalStaker",
          "type": "address"
        },
        {
          "indexed": true,
          "internalType": "uint256",
          "name": "tokenId",
          "type": "uint256"
        },
        {
          "indexed": true,
          "internalType": "address",
          "name": "recipient",
          "type": "address"
        },
        {
          "indexed": false,
          "internalType": "uint256",
          "name": "withdrawnAt",
          "type": "uint256"
        }
      ],
      "name": "EmergencyWithdrawn",
      "type": "event"
    },
    {
      "anonymous": false,
      "inputs": [
        {
          "indexed": true,
          "internalType": "address",
          "name": "previousOwner",
          "type": "address"
        },
        {
          "indexed": true,
          "internalType": "address",
          "name": "newOwner",
          "type": "address"
        }
      ],
      "name": "OwnershipTransferred",
      "type": "event"
    },
    {
      "anonymous": false,
      "inputs": [
        {
          "indexed": false,
          "internalType": "address",
          "name": "account",
          "type": "address"
        }
      ],
      "name": "Paused",
      "type": "event"
    },
    {
      "anonymous": false,
      "inputs": [
        {
          "indexed": true,
          "internalType": "address",
          "name": "staker",
          "type": "address"
        },
        {
          "indexed": true,
          "internalType": "uint256",
          "name": "tokenId",
          "type": "uint256"
        },
        {
          "indexed": false,
          "internalType": "uint256",
          "name": "stakedAt",
          "type": "uint256"
        }
      ],
      "name": "TokenStaked",
      "type": "event"
    },
    {
      "anonymous": false,
      "inputs": [
        {
          "indexed": true,
          "internalType": "address",
          "name": "staker",
          "type": "address"
        },
        {
          "indexed": true,
          "internalType": "uint256",
          "name": "tokenId",
          "type": "uint256"
        },
        {
          "indexed": false,
          "internalType": "uint256",
          "name": "unstakedAt",
          "type": "uint256"
        }
      ],
      "name": "TokenUnstaked",
      "type": "event"
    },
    {
      "anonymous": false,
      "inputs": [
        {
          "indexed": false,
          "internalType": "address",
          "name": "account",
          "type": "address"
        }
      ],
      "name": "Unpaused",
      "type": "event"
    },
    {
      "inputs": [
        {
          "internalType": "uint256",
          "name": "tokenId",
          "type": "uint256"
        },
        {
          "internalType": "address",
          "name": "recipient",
          "type": "address"
        }
      ],
      "name": "emergencyWithdraw",
      "outputs": [],
      "stateMutability": "nonpayable",
      "type": "function"
    },
    {
      "inputs": [
        {
          "internalType": "uint256",
          "name": "tokenId",
          "type": "uint256"
        }
      ],
      "name": "isStaked",
      "outputs": [
        {
          "internalType": "bool",
          "name": "",
          "type": "bool"
        }
      ],
      "stateMutability": "view",
      "type": "function"
    },
    {
      "inputs": [],
      "name": "nftContract",
      "outputs": [
        {
          "internalType": "contract IERC721",
          "name": "",
          "type": "address"
        }
      ],
      "stateMutability": "view",
      "type": "function"
    },
    {
      "inputs": [
        {
          "internalType": "address",
          "name": "",
          "type": "address"
        },
        {
          "internalType": "address",
          "name": "from",
          "type": "address"
        },
        {
          "internalType": "uint256",
          "name": "tokenId",
          "type": "uint256"
        },
        {
          "internalType": "bytes",
          "name": "",
          "type": "bytes"
        }
      ],
      "name": "onERC721Received",
      "outputs": [
        {
          "internalType": "bytes4",
          "name": "",
          "type": "bytes4"
        }
      ],
      "stateMutability": "nonpayable",
      "type": "function"
    },
    {
      "inputs": [],
      "name": "owner",
      "outputs": [
        {
          "internalType": "address",
          "name": "",
          "type": "address"
        }
      ],
      "stateMutability": "view",
      "type": "function"
    },
    {
      "inputs": [],
      "name": "pause",
      "outputs": [],
      "stateMutability": "nonpayable",
      "type": "function"
    },
    {
      "inputs": [],
      "name": "paused",
      "outputs": [
        {
          "internalType": "bool",
          "name": "",
          "type": "bool"
        }
      ],
      "stateMutability": "view",
      "type": "function"
    },
    {
      "inputs": [],
      "name": "renounceOwnership",
      "outputs": [],
      "stateMutability": "nonpayable",
      "type": "function"
    },
    {
      "inputs": [
        {
          "internalType": "uint256",
          "name": "tokenId",
          "type": "uint256"
        }
      ],
      "name": "stake",
      "outputs": [],
      "stateMutability": "nonpayable",
      "type": "function"
    },
    {
      "inputs": [
        {
          "internalType": "uint256",
          "name": "tokenId",
          "type": "uint256"
        }
      ],
      "name": "stakedOwnerOf",
      "outputs": [
        {
          "internalType": "address",
          "name": "",
          "type": "address"
        }
      ],
      "stateMutability": "view",
      "type": "function"
    },
    {
      "inputs": [
        {
          "internalType": "address",
          "name": "newOwner",
          "type": "address"
        }
      ],
      "name": "transferOwnership",
      "outputs": [],
      "stateMutability": "nonpayable",
      "type": "function"
    },
    {
      "inputs": [],
      "name": "unpause",
      "outputs": [],
      "stateMutability": "nonpayable",
      "type": "function"
    },
    {
      "inputs": [
        {
          "internalType": "uint256",
          "name": "tokenId",
          "type": "uint256"
        }
      ],
      "name": "unstake",
      "outputs": [],
      "stateMutability": "nonpayable",
      "type": "function"
    }
  ],
  "bytecode": "0x60a060405234801561000f575f80fd5b50604051610d04380380610d0483398101604081905261002e91610108565b338061005357604051631e4fbdf760e01b81525f600482015260240160405180910390fd5b61005c816100b9565b5060017f9b779b17422d0df92223018b32b4d1fa46e071723d6817e2486d003becc55f00556001600160a01b0381166100a85760405163d92e233d60e01b815260040160405180910390fd5b6001600160a01b0316608052610135565b5f80546001600160a01b038381166001600160a01b0319831681178455604051919092169283917f8be0079c531659141344cd1fd0a4f28419497f9722a3daafe3b4186f6b6457e09190a35050565b5f60208284031215610118575f80fd5b81516001600160a01b038116811461012e575f80fd5b9392505050565b608051610b946101705f395f81816101ef01528181610240015281816103e6015281816105480152818161068e015261078f0152610b945ff3fe608060405234801561000f575f80fd5b50600436106100cb575f3560e01c8063715018a611610088578063a694fc3a11610063578063a694fc3a146101ad578063baa51f86146101c0578063d56d229d146101ea578063f2fde38b14610211575f80fd5b8063715018a61461018d5780638456cb59146101955780638da5cb5b1461019d575f80fd5b8063150b7a02146100cf5780631dcac94d146101005780632e17de78146101405780632f940c70146101555780633f4ba83a146101685780635c975abb14610170575b5f80fd5b6100e26100dd366004610a23565b610224565b6040516001600160e01b031990911681526020015b60405180910390f35b61012861010e366004610abc565b5f908152600160205260409020546001600160a01b031690565b6040516001600160a01b0390911681526020016100f7565b61015361014e366004610abc565b61033b565b005b610153610163366004610ad3565b61048f565b610153610608565b5f54600160a01b900460ff165b60405190151581526020016100f7565b61015361061a565b61015361062b565b5f546001600160a01b0316610128565b6101536101bb366004610abc565b61063b565b61017d6101ce366004610abc565b5f908152600160205260409020546001600160a01b0316151590565b6101287f000000000000000000000000000000000000000000000000000000000000000081565b61015361021f366004610b01565b610822565b5f61022d610861565b61023561087c565b336001600160a01b037f0000000000000000000000000000000000000000000000000000000000000000161461027e5760405163de1db39560e01b815260040160405180910390fd5b5f848152600160205260409020546001600160a01b0316156102b3576040516316e9ad8f60e01b815260040160405180910390fd5b5f8481526001602090815260409182902080546001600160a01b0319166001600160a01b03891690811790915591514281528692917f6173e4d2d9dd52aae0ed37afed3adcf924a490639b759ca93d32dc43366c17d2910160405180910390a350630a85bd0160e11b61033260015f80516020610b3f83398151915255565b95945050505050565b610343610861565b5f818152600160205260409020546001600160a01b03168061037857604051630a49bbc360e21b815260040160405180910390fd5b6001600160a01b03811633146103a1576040516332dc95cb60e01b815260040160405180910390fd5b5f828152600160205260409081902080546001600160a01b0319169055516323b872dd60e01b8152306004820152336024820152604481018390526001600160a01b037f000000000000000000000000000000000000000000000000000000000000000016906323b872dd906064015f604051808303815f87803b158015610427575f80fd5b505af1158015610439573d5f803e3d5ffd5b50506040514281528492503391507f563fc70fca9d440d883299c76a721644d5aca7c45df98aeb5292c4cb823579bf906020015b60405180910390a35061048c60015f80516020610b3f83398151915255565b50565b6104976108a6565b61049f610861565b5f828152600160205260409020546001600160a01b03166104d357604051630a49bbc360e21b815260040160405180910390fd5b6001600160a01b0381166104fa5760405163d92e233d60e01b815260040160405180910390fd5b5f828152600160205260409081902080546001600160a01b0319811690915590516323b872dd60e01b81523060048201526001600160a01b03838116602483015260448201859052918216917f000000000000000000000000000000000000000000000000000000000000000016906323b872dd906064015f604051808303815f87803b158015610589575f80fd5b505af115801561059b573d5f803e3d5ffd5b50505050816001600160a01b031683826001600160a01b03167ff4408f2b7cb3bb2b43ddb3715579eae68a12af5f2e6d938537db2be5e72f5f7d426040516105e591815260200190565b60405180910390a45061060460015f80516020610b3f83398151915255565b5050565b6106106108a6565b6106186108d2565b565b6106226108a6565b6106185f610926565b6106336108a6565b610618610975565b610643610861565b61064b61087c565b5f8181526001602052604090205433906001600160a01b031615610682576040516316e9ad8f60e01b815260040160405180910390fd5b806001600160a01b03167f00000000000000000000000000000000000000000000000000000000000000006001600160a01b0316636352211e846040518263ffffffff1660e01b81526004016106da91815260200190565b602060405180830381865afa1580156106f5573d5f803e3d5ffd5b505050506040513d601f19601f820116820180604052508101906107199190610b23565b6001600160a01b031614610740576040516359dc379f60e01b815260040160405180910390fd5b5f828152600160205260409081902080546001600160a01b0319166001600160a01b0384811691821790925591516323b872dd60e01b81526004810192909252306024830152604482018490527f000000000000000000000000000000000000000000000000000000000000000016906323b872dd906064015f604051808303815f87803b1580156107d0575f80fd5b505af11580156107e2573d5f803e3d5ffd5b5050505081816001600160a01b03167f6173e4d2d9dd52aae0ed37afed3adcf924a490639b759ca93d32dc43366c17d24260405161046d91815260200190565b61082a6108a6565b6001600160a01b03811661085857604051631e4fbdf760e01b81525f60048201526024015b60405180910390fd5b61048c81610926565b6108696109b7565b60025f80516020610b3f83398151915255565b5f54600160a01b900460ff16156106185760405163d93c066560e01b815260040160405180910390fd5b5f546001600160a01b031633146106185760405163118cdaa760e01b815233600482015260240161084f565b6108da6109e6565b5f805460ff60a01b191690557f5db9ee0a495bf2e6ff9c91a7834c1ba4fdd244a5e8aa4e537bd38aeae4b073aa335b6040516001600160a01b03909116815260200160405180910390a1565b5f80546001600160a01b038381166001600160a01b0319831681178455604051919092169283917f8be0079c531659141344cd1fd0a4f28419497f9722a3daafe3b4186f6b6457e09190a35050565b61097d61087c565b5f805460ff60a01b1916600160a01b1790557f62e78cea01bee320cd4e420270b5ea74000d11b0c9f74754ebdbfc544b05a2586109093390565b5f80516020610b3f8339815191525460020361061857604051633ee5aeb560e01b815260040160405180910390fd5b5f54600160a01b900460ff1661061857604051638dfc202b60e01b815260040160405180910390fd5b6001600160a01b038116811461048c575f80fd5b5f805f805f60808688031215610a37575f80fd5b8535610a4281610a0f565b94506020860135610a5281610a0f565b935060408601359250606086013567ffffffffffffffff811115610a74575f80fd5b8601601f81018813610a84575f80fd5b803567ffffffffffffffff811115610a9a575f80fd5b886020828401011115610aab575f80fd5b959894975092955050506020019190565b5f60208284031215610acc575f80fd5b5035919050565b5f8060408385031215610ae4575f80fd5b823591506020830135610af681610a0f565b809150509250929050565b5f60208284031215610b11575f80fd5b8135610b1c81610a0f565b9392505050565b5f60208284031215610b33575f80fd5b8151610b1c81610a0f56fe9b779b17422d0df92223018b32b4d1fa46e071723d6817e2486d003becc55f00a2646970667358221220789ef719678c33e182cf1d94f693e2f141867972501e819145c68f0466400dff64736f6c634300081a0033",
  "linkReferences": {},
  "deployedLinkReferences": {}
}